:100000000C9434000C9451000C9451000C94510049
:100010000C9473090C9451000C9451000C945100F1
:100020000C9451000C9451000C9451000C94C40990
:100030000C9451000C9451000C94CF030C9451007B
:100040000C9451000C9451000C94CD020C9451006E
:100050000C9451000C9451000C9451000C945100DC
:100060000C9451000C94510011241FBECFEFD8E026
:10007000DEBFCDBF13E0A0E0B1E0E2ECFCE102C0E6
:1000800005900D92A630B107D9F723E0A6E0B3E0C2
:1000900001C01D92AD3DB207E1F70E9418090C9412
:1000A0005F0E0C94000080E480937C0086E88093CF
:1000B0007A000895ECE7F0E09081907F8F70892BB3
:1000C0008083EAE7F0E080818064808380917A0019
:1000D00086FDFCCF80917800909179000895F99980
:1000E000FECF92BD81BD60BD8FB384608FBB8FB3E7
:1000F00082608FBB0895F999FECF92BD81BD8FB309
:1001000081608FBB80B508959F92AF92BF92CF92CE
:10011000DF92EF92FF920F931F93CF93DF937C01B7
:100120006B01942EA12C30C0EA2DF0E0EE0FFF1FE2
:10013000EC0DFD1D1081B180CA2DD0E0CC0FDD1F6C
:10014000CE0DDF1D612FCE010E946F008FE39CE971
:100150000197F1F700C00000CE010E947B00181348
:10016000EBCF6B2D8E010F5F1F4FC8010E946F00F8
:100170008FE39CE90197F1F700C00000C8010E94DD
:100180007B00B812EECFA394A91470F2DF91CF9147
:100190001F910F91FF90EF90DF90CF90BF90AF90A5
:1001A0009F9008959F92AF92BF92CF92DF92EF926D
:1001B000FF920F931F93CF93DF938C01EB01C42E1B
:1001C000D12C19C0ED2CF12CEE0CFF1C5701A00E08
:1001D000B11EC5010E947B00982EC50101960E94A8
:1001E0007B00FE01EE0DFF1D90E0982F88278929E6
:1001F00091838083D394DC1428F3DF91CF911F91F6
:100200000F91FF90EF90DF90CF90BF90AF909F90B5
:10021000089584EA8093BC008091BC008823E4F7B1
:10022000089584E98093BC0008958093BB0084E81E
:100230008093BC008091BC008823E4F708950F935D
:100240001F93CF93DF93062F182F107F90E1899F84
:10025000E00111240E9409018EE40E941501D12FB2
:10026000D02B8D2F8C600E9415018D2F88600E94ED
:100270001501C02B8C2F8C600E9415018C2F88607B
:100280000E9415010E9411018FE891E00197F1F79A
:1002900000C00000DF91CF911F910F9108952FEFC3
:1002A00080E792E0215080409040E1F700C00000DC
:1002B00060E080E30E941F018FE19EE40197F1F767
:1002C00000C0000060E080E30E941F018FE891E021
:1002D0000197F1F700C0000060E080E30E941F0179
:1002E00060E080E20E941F0160E088E20E941F013E
:1002F00060E08CE00E941F0160E081E00E941F012D
:100300008FE39FE10197F1F700C000000895CF93BC
:10031000DF93EC0104C061E00E941F0121968881F7
:100320008111F9CFDF91CF9108958295880F880FC1
:10033000807C60E080680E941F01089560E081E099
:100340000E941F018FE39FE10197F1F700C00000B9
:10035000089582E084BD93E095BD99EF97BD8093A9
:100360006E0008950F931F93CF93DF93CDB7DEB741
:10037000A0970FB6F894DEBF0FBECDBF8C0143E04F
:1003800050E065E071E00E942F0B892B31F481E091
:100390008093610380934B03F5C081E08093500309
:1003A0008091540390915503A0E0B0E080934C03FA
:1003B00090934D03A0934E03B0934F0343E050E05E
:1003C00065E071E0C8010E942F0B892B21F481E0C8
:1003D00080936103D7C043E050E069E071E0C80159
:1003E0000E942F0B892B21F482E080936103CAC005
:1003F0004BE050E06DE071E0C8010E942F0B892BAB
:1004000019F5C8010B960E94110B2FEF280F26300B
:1004100008F0B8C02093640399279F938F9389E1D4
:1004200091E09F938F938E010F5F1F4F1F930F9348
:100430000E94750BC8010E94480A0F900F900F9000
:100440000F900F900F909EC049E050E064E271E081
:10045000C8010E942F0B892B19F5C80109960E942B
:10046000110B2FEF280F263008F08CC02093630368
:1004700099279F938F938EE291E09F938F938E01A4
:100480000F5F1F4F1F930F930E94750BC8010E94AF
:10049000480A0F900F900F900F900F900F9072C01E
:1004A00048E050E069E371E0C8010E942F0B892BFE
:1004B00089F5C80108960E94110B8C01853608F059
:1004C00061C0202F30E0A8EEB3E00E94910A24E63C
:1004D00030E040E050E00E946F0AC9018C509E4F0E
:1004E0000E94B50911271F930F9382E491E09F9317
:1004F0008F938E010F5F1F4F1F930F930E94750BF9
:10050000C8010E94480A0F900F900F900F900F9013
:100510000F9038C048E050E06EE471E0C8010E94DE
:100520002F0B892B79F5C80108960E94110B8C01BD
:10053000853640F5202F30E0A0EDB7E00E94910A0B
:1005400024E630E040E050E00E946F0AC9018C5080
:100550009E4F0E94BA0911271F930F9387E591E0E0
:100560009F938F938E010F5F1F4F1F930F930E94D6
:10057000750BC8010E94480A0F900F900F900F90C2
:100580000F900F90A0960FB6F894DEBF0FBECDBFB0
:10059000DF91CF911F910F9108951F920F920FB687
:1005A0000F9211242F933F934F935F936F937F93F9
:1005B0008F939F93AF93BF93EF93FF938091C60068
:1005C0008A3021F0E0914603EF3368F0E091460372
:1005D000F0E0EA5FFC4F108286E093E00E94B201F7
:1005E000109246030CC090EE980F9F3540F491E0B6
:1005F0009E0F90934603F0E0EA5FFC4F8083FF91EB
:10060000EF91BF91AF919F918F917F916F915F918A
:100610004F913F912F910F900FBE0F901F90189503
:100620004F925F926F927F928F929F92AF92BF9202
:10063000CF92DF92EF92FF920F931F93CF93DF93AE
:10064000CDB7DEB7A0970FB6F894DEBF0FBECDBF13
:1006500080915003813009F08BC02091640330E019
:10066000A4E6B0E00E94910A2BEA3AEA4AEA5AEA82
:100670000E94AB0A00E20E94D80A822E932EA42E7A
:10068000B52E240135017694679457944794769457
:100690006794579447942091630330E0A4E6B0E058
:1006A0000E94910A2BEA3AEA4AEA5AEA0E94AB0A05
:1006B0000E94D80A822E932EA42EB52EB694A7940B
:1006C00097948794B694A7949794879480915D03A8
:1006D00090915E0384159505F1F480915B039091F0
:1006E0005C0388169906B9F48091540390915503E0
:1006F000A0E0B0E040915703509158036091590336
:1007000070915A03841B950BA60BB70B8133954749
:10071000A105B10568F19F928F925F924F9283E697
:1007200091E09F938F938E010F5F1F4F1F930F9345
:100730000E94750BC8010E94480A50925E034092C5
:100740005D0390925C0380925B03809154039091CF
:100750005503A0E0B0E08093570390935803A09313
:100760005903B0935A030FB6F894DEBF0FBECDBF46
:10077000A0960FB6F894DEBF0FBECDBFDF91CF912C
:100780001F910F91FF90EF90DF90CF90BF90AF90AF
:100790009F908F907F906F905F904F9008951F92E1
:1007A0000F920FB60F9211242F933F934F935F93A5
:1007B0006F937F938F939F93AF93BF93EF93FF9329
:1007C0002091490330914A032F5F3F4F30934A03F2
:1007D0002093490380914703909148030196909399
:1007E000480380934703283E334070F010924A0339
:1007F00010924903209154033091550328513C4FE6
:100800003093550320935403843F914030F010926D
:100810004803109247030E941003409149035091EE
:100820004A039A013695279536952795ABE3BDE6A1
:100830000E94910A96958795929582958F70892747
:100840009F7089276CE271E0869F9001879F300D31
:10085000969F300D11244217530739F49091560397
:1008600081E0911180E080935603FF91EF91BF9159
:10087000AF919F918F917F916F915F914F913F9138
:100880002F910F900FBE0F901F90189580E00E943F
:10089000950182E791E00E94870181E00E94950125
:1008A00084E891E00E94870108954F925F926F92D1
:1008B0007F928F929F92AF92BF92CF92DF92EF92F0
:1008C000FF920F931F93CF93DF93CDB7DEB7A2971D
:1008D0000FB6F894DEBF0FBECDBF809150038111DB
:1008E00042C082E00E945A00AC0160E070E0DB018F
:1008F000CA01880F991FAA1FBB1F840F951FA61F2F
:10090000B71FAC01BD01440F551F661F771F032E93
:100910003AE076956795579547953A95D1F7302DFA
:100920004093640383E00E945A00AC0160E070E0F1
:10093000DB01CA01880F991FAA1FBB1F840F951FD7
:10094000A61FB71FAC01BD01440F551F661F771FBF
:10095000032E3AE076956795579547953A95D1F7E6
:10096000302D4093630386E00E945A002C0187E0FB
:100970000E945A004C01612C712CA8EEB3E0A30137
:1009800092010E94A00A0F2ECC24CA94F3E0DF2E1D
:10099000E12CF12CF02DA70196010E946F0AC901EC
:1009A0008C509E4F0E94B509A12CB12CACE6B7E04B
:1009B000A50194010E94A00AA70196010E946F0A56
:1009C000C9018C509E4F0E94BA0980E00E94950197
:1009D000A4E6B0E0A30192010E94A00A1091640372
:1009E000A70196010E946F0A5F934F933F932F9345
:1009F000212F30E02F5F3F4F3F932F938BE891E003
:100A00009F938F931F920F2EF1E17F2EF02D7F92F7
:100A10008E010F5F1F4F1F930F930E94450BC8015C
:100A20000E94870181E00E949501A4E6B0E0A50143
:100A300094010E94A00A10916303A70196010E94ED
:100A40006F0A5F934F933F932F93812F90E001960E
:100A50009F938F9389E991E09F938F931F927F9249
:100A60008E010E5E1F4F1F930F930E94450BC8010E
:100A70000E948701809161030FB6F894DEBF0FBE1C
:100A8000CDBF823039F41092610381E0809353032B
:100A90000E949E01A2960FB6F894DEBF0FBECDBF96
:100AA000DF91CF911F910F91FF90EF90DF90CF904A
:100AB000BF90AF909F908F907F906F905F904F907E
:100AC00008952F923F924F925F926F927F928F92F2
:100AD0009F92AF92BF92CF92DF92EF92FF920F93CD
:100AE0001F93CF93DF93CDB7DEB7CF54D1090FB6A5
:100AF000F894DEBF0FBECDBF80915303813021F04B
:100B0000823009F45DC048C282E00E945A00AC0104
:100B100060E070E0DB01CA01880F991FAA1FBB1FAC
:100B20008C019D01040F151F261F371FC901B80135
:100B30002FEF33E040E050E00E946F0A20935F0304
:100B400080E00E9495018CED91E00E94870181E098
:100B50000E94950180915F0390E001969F938F938F
:100B60008EEE91E09F938F938E010F5F1F4F1F9327
:100B70000F930E94750BC8010E9487018091610349
:100B80000F900F900F900F900F900F90823009F000
:100B900003C2109261038093530380915403909198
:100BA000550390935203809351030E949E0181E06C
:100BB00092E00E94870182E192E00E94480AECC123
:100BC0002091540330915503809151039091520329
:100BD0001901281A390A91013695279536952795D6
:100BE00036952795A5ECB0E20E94910A92958295E0
:100BF0008F7089279F7089272FE030E08901081BBB
:100C0000190B2E961FAF0EAF2E9782E00E945A004E
:100C1000AC0160E070E0DB01CA01880F991FAA1FD8
:100C2000BB1F840F951FA61FB71F6C017D01CC0C45
:100C3000DD1CEE1CFF1C0B2EBAE0F694E794D79453
:100C4000C794BA95D1F7B02D83E00E945A00AC0149
:100C500060E070E0DB01CA01880F991FAA1FBB1F6B
:100C6000840F951FA61FB71FAC01BD01440F551F70
:100C7000661F771FCB01BA01052E5AE0969587951E
:100C8000779567955A95D1F7502D20916403C2123C
:100C900004C020916303621719F08C2D0E94BF09D4
:100CA00086E00E945A008C0187E00E945A006096FC
:100CB0009FAF8EAF60974801A12CB12CA8EEB3E096
:100CC000A50194010E94A00A0F2ECC24CA94F3E03F
:100CD000DF2EE12CF12CF02DA70196010E946F0A66
:100CE000C9018C509E4F0E94B50960962EAD3FAD54
:100CF00060972901612C712CA0EDB7E0A30192014E
:100D00000E94A00AA70196010E946F0AC9018C5097
:100D10009E4F0E94BA09E0916403F0E0EE0FFF1FBE
:100D2000EB59FC4F11830083E0916303F0E03696AA
:100D3000EE0FFF1FEB59FC4F60960EAD1FAD609795
:100D40001183008380E00E949501A4E6B0E0A30136
:100D500092010E94A00AA70196010E946F0A022F29
:100D6000732E10916303A4E6B0E0A50194010E94E4
:100D7000A00AA70196010E946F0A809164037F92E6
:100D80000F93412F50E04F5F5F4F5F934F933F931F
:100D90002F9390E001969F938F9382E292E09F932E
:100DA0008F931F9281E18F938E01055C1F4F1F93DC
:100DB0000F930E94450BC8010E94870181E00E94A9
:100DC000950180915F0390E001969F938F932E96FB
:100DD0001FAD2E971F932D962FAD2D972F938EE33A
:100DE00092E09F938F938E01065D1F4F1F930F9389
:100DF0000E94750BC8010E9487010FB6F894DEBFF0
:100E00000FBECDBF58E925165AE3350608F4A7C032
:100E100080915F038130A9F028F0823031F0833077
:100E200051F0BAC0C12CD12C11C00F2EF0E3CF2E3F
:100E3000D12CF02D0BC00F2EF8E4CF2ED12CF02D9D
:100E400005C00F2EF8E1CF2ED12CF02D0E949E016F
:100E500081E592E00E948701F12C16C00F2D10E071
:100E6000000F111F0C0D1D1D6FEFC8010E946F00B8
:100E70006FEFC80101960E946F008FE39CE9019714
:100E8000F1F700C00000F3949BE09F1538F74CE0A9
:100E900065E673E0C6010E9484004CE0BE016F5F0E
:100EA0007F4FC6010E94D2000E949E0120E030E0E8
:100EB00016C0822F90E0880F991FE1E0F0E0EC0F60
:100EC000FD1FE80FF91F40815181FC01EB59FC4FD8
:100ED000808191814817590709F03F5F2F5F2C30BF
:100EE00040F3311105C08EE592E00E94870116C0E3
:100EF0001F923F9381E792E09F938F938E01075E4D
:100F00001F4F1F930F930E94750BC8010E9487010A
:100F10000F900F900F900F900F900F900FEF17EA18
:100F200021E6015010402040E1F700C000000E947F
:100F30009E0186E892E00E94870182E892E00E948A
:100F4000480A3FEF43ED50E3315040405040E1F755
:100F500000C0000010925303109260031DC08091E6
:100F600061038130C9F4109261030E949E018BE9F4
:100F700092E00E94870187E992E00E94480A8FEF81
:100F800093ED00E3815090400040E1F700C0000085
:100F90001092530310926003C15BDF4F0FB6F894B9
:100FA000DEBF0FBECDBFDF91CF911F910F91FF909C
:100FB000EF90DF90CF90BF90AF909F908F907F90F9
:100FC0006F905F904F903F902F9008950F931F93D5
:100FD000CF93DF93CDB7DEB768970FB6F894DEBF37
:100FE0000FBECDBF813079F028F0823031F08330F0
:100FF00039F0A3C000E010E008C000E310E005C035
:1010000008E410E002C008E110E00E949E018DEAB1
:1010100092E00E9487014CE0BE016F5F7F4FC801E4
:101020000E94D20020E01DC0822F90E0FC01EE0F54
:10103000FF1F41E050E04C0F5D1FE40FF51F4081A2
:1010400051814115544060F0880F991FE1E0F0E0B4
:10105000EC0FFD1FE80FF91F80E092E09183808381
:101060002F5F2C3008F310E029C060E0812F0E9430
:10107000BF09E12FF0E0EE0FFF1F41E050E04C0F01
:101080005D1FE40FF51F20813181A8EEB3E00E94BF
:10109000910A2FEF33E040E050E00E946F0AC9014F
:1010A0008C509E4F0E94B5095FEF81EE94E0515045
:1010B00080409040E1F700C000001F5F1630A8F2AA
:1010C00010E02AC0612F80E00E94BF09E12FF0E00C
:1010D0003696EE0FFF1F21E030E02C0F3D1FE20F90
:1010E000F31F20813181A0EDB7E00E94910A2FEF1C
:1010F00033E040E050E00E946F0AC9018C509E4FDF
:101100000E94BA093FEF41EE54E031504040504058
:10111000E1F700C000001F5F1630A0F20E949E01A0
:1011200089EB92E00E9487018FEF93ED20E38150DD
:1011300090402040E1F700C0000068960FB6F89498
:10114000DEBF0FBECDBFDF91CF911F910F910895EC
:101150000F931F93CF93DF93CDB7DEB761970FB691
:10116000F894DEBF0FBECDBF82E00E945A00AC01F2
:1011700060E070E0DB01CA01880F991FAA1FBB1F46
:101180008C019D01040F151F261F371FC901B801CF
:101190002FEF33E040E050E00E946F0A20935F039E
:1011A00080E00E9495018DEC92E00E94870181E031
:1011B0000E94950180915F0390E001969F938F9329
:1011C0008EED92E09F938F938E010F5F1F4F1F93C1
:1011D0000F930E94750BC8010E94870180916103E3
:1011E0000F900F900F900F900F900F908230A9F4F6
:1011F0001092610380915F030E94E6070E949E01A6
:1012000081EF92E00E9487011FEF23ED30E3115040
:1012100020403040E1F700C0000061960FB6F8941E
:10122000DEBF0FBECDBFDF91CF911F910F9108950B
:101230000E94A0090E9453000E9461090E94A90116
:101240000E94350A1092B90088E48093B80084E0C7
:101250008093BC000E944F0178948091610381309B
:10126000C1F41092610380914B03882331F081E037
:101270008093500310924B0302C010925003809150
:10128000600390E0019663E070E00E945B0A809347
:10129000600380916003813039F018F0823071F082
:1012A000DCCF0E94A808D9CF80915303811103C0DD
:1012B0000E945504D2CF0E946105CFCF0E94460400
:1012C000CCCF87B18C7F87B988B1836088B9ECE6D1
:1012D000F0E0808183608083E8E6F0E080818260D6
:1012E0008083789408951F920F920FB60F92112465
:1012F0002F933F938F939F9386B1837090910001BA
:101300008917A9F02FEF39EF90E02150304090403D
:10131000E1F700C0000080930001309903C081E034
:1013200080936103319903C082E0809361039F91B0
:101330008F913F912F910F900FBE0F901F90189596
:101340008AB18C6F8AB984B18F6384B9109280009E
:101350008AE08093810080E49CE9909389008093E7
:10136000880082E080936F00089590930401809339
:1013700003010895909302018093010108958093E1
:1013800064036093630308951F920F920FB60F9248
:1013900011242F933F938F939F9380916203813009
:1013A00021F118F08230F1F157C08BB183708BB905
:1013B0002091640330E02E5F3F4F81E090E002C057
:1013C000880F991F2A95E2F79BB1892B8BB98091E1
:1013D000030190910401880F991F909389008093D5
:1013E000880081E08093620337C08BB183708BB932
:1013F0002091630381E090E002C0880F991F2A9535
:10140000E2F795B1892B85B9809101019091020194
:10141000880F991F909389008093880082E08093C1
:1014200062031AC085B1807C85B920910301309197
:1014300004018091010190910201820F931F919507
:1014400081959109880F991F805C9346909389003C
:1014500080938800109262039F918F913F912F910A
:101460000F900FBE0F901F9018951092C50087E641
:101470008093C40088E98093C10086E08093C20015
:1014800008959091C00095FFFCCF8093C600089509
:10149000CF93DF93EC0103C021960E94410A88811B
:1014A0008111FACF8DE00E94410A8AE00E94410A30
:1014B000DF91CF91089597FB072E16F4009407D083
:1014C00077FD09D00E94F40A07FC05D03EF4909500
:1014D00081959F4F0895709561957F4F0895A1E282
:1014E0001A2EAA1BBB1BFD010DC0AA1FBB1FEE1F9E
:1014F000FF1FA217B307E407F50720F0A21BB30BE9
:10150000E40BF50B661F771F881F991F1A9469F764
:1015100060957095809590959B01AC01BD01CF01C0
:101520000895A29FB001B39FC001A39F700D811DBC
:101530001124911DB29F700D811D1124911D0895DC
:101540000E94910AA59F900DB49F900DA49F800DBD
:10155000911D11240895E894DF93CF93FC01DB01E2
:101560000E94910A7F936F93E9019A01AC01BF93A6
:10157000AF933F932F93DF010E94910A26F46C1BD7
:101580007D0B820B930B9E01EB01FC010E94080B6B
:10159000AF91BF912F913F910E94080BBE01CF01E7
:1015A000F9012F913F91CF91DF91089597FB10F8AA
:1015B000169400080F93083098F00850232F342F0A
:1015C000452F562F672F782F892F902DF4CF059414
:1015D000979587957795679557954795379527956B
:1015E0000A95AAF70F910895AA1BBB1B51E107C0EA
:1015F000AA1FBB1FA617B70710F0A61BB70B881FA3
:10160000991F5A95A9F780959095BC01CD01089531
:101610000E94910A460F571FC81FD91F08F4319620
:101620000895FC0188279927E89421912032E9F355
:10163000293010F02E30C8F32B3241F02D3239F41E
:10164000689404C00E943D0B820F911D219120538C
:101650002A30C0F31EF4909581959F4F0895FB01A9
:10166000DC014150504030F08D910190801919F407
:101670000020B9F7881B990B08957AE0979F902D69
:10168000879F802D910D11240895AEE0B0E0EBE42A
:10169000FBE00C94360E0D891E898F89988D26E00B
:1016A0002C831A83098397FF02C080E090E801979A
:1016B0009E838D83AE01455E5F4F698D7A8DCE012D
:1016C00001960E94970B4D815E8157FD0AC02F81C4
:1016D0003885421753070CF49A01F801E20FF31F03
:1016E00010822E96E4E00C94520EAEE0B0E0EBE7F0
:1016F000FBE00C94360E0D891E8986E08C831A83DC
:1017000009838FEF9FE79E838D83AE01475E5F4F16
:101710006F89788DCE0101960E94970BEF81F88535
:10172000E00FF11F10822E96E4E00C94520EABE015
:10173000B0E0EDE9FBE00C94280E6C017B018A011E
:10174000FC0117821682838181FFCCC1CE010196F4
:101750003C01F6019381F70193FD859193FF8191FF
:101760007F01882309F4BAC1853239F493FD85914C
:1017700093FF81917F01853229F4B60190E00E94A8
:101780008E0DE7CF912C212C312CFFE1F315D8F0F1
:101790008B3279F038F4803279F08332A1F4232D42
:1017A00020611DC08D3261F0803369F4232D2160EA
:1017B00016C0832D8260382EE32DE4603E2E2AC0B1
:1017C000F32DF8601DC037FC2DC020ED280F2A3006
:1017D00040F08E32B9F436FC81C1232D2064322EC4
:1017E00019C036FE06C08AE0989E200D1124922E64
:1017F00011C0EAE02E9E200D1124222EF32DF0625E
:101800003F2E08C08C3621F4832D8068382E02C00C
:10181000883641F4F70193FD859193FF81917F0113
:101820008111B3CF982F9F7D9554933028F40C5F8E
:101830001F4F9FE399830DC0833631F0833771F0DA
:10184000833509F059C021C0F801808189830E5F7A
:101850001F4F88248394912C530113C02801F2E078
:101860004F0E511CF801A080B18036FE03C0692DD7
:1018700070E002C06FEF7FEFC5010E94830D4C0145
:101880008201F32DFF773F2E16C0280122E0420E81
:10189000511CF801A080B18036FE03C0692D70E0B4
:1018A00002C06FEF7FEFC5010E94780D4C01F32D50
:1018B000F0683F2E820133FC1BC0822D90E0881619
:1018C0009906B0F4B60180E290E00E948E0D2A9451
:1018D000F4CFF50137FC859137FE81915F01B601A8
:1018E00090E00E948E0D21102A9421E0821A910826
:1018F0008114910471F7E8C0843611F0893641F5FE
:10190000F80137FE07C060817181828193810C5F8D
:101910001F4F08C060817181072E000C880B990B46
:101920000E5F1F4FF32DFF763F2E97FF09C0909556
:101930008095709561957F4F8F4F9F4FF0683F2E38
:101940002AE030E0A3010E94CA0D882E861845C007
:10195000853731F4232D2F7EB22E2AE030E025C0CA
:10196000932D997FB92E8F36C1F018F4883579F010
:10197000B5C0803719F0883721F0B0C0E92FE06199
:10198000BE2EB4FE0DC0FB2DF460BF2E09C034FE88
:101990000AC0292F2660B22E06C028E030E005C01C
:1019A00020E130E002C020E132E0F801B7FE07C0DC
:1019B00060817181828193810C5F1F4F06C06081BD
:1019C000718180E090E00E5F1F4FA3010E94CA0D5D
:1019D000882E8618FB2DFF773F2E36FE0DC0232D57
:1019E0002E7FA22E891458F434FE0BC032FC09C09D
:1019F000832D8E7EA82E05C0B82CA32C03C0B82C36
:101A000001C0B92CA4FE0FC0FE01E80DF11D8081BC
:101A1000803321F49A2D997EA92E09C0A2FE06C01A
:101A2000B394B39404C08A2D867809F0B394A3FCD0
:101A300011C0A0FE06C0B21488F4280C922C9B188A
:101A40000EC0B21460F4B60180E290E00E948E0DE8
:101A5000B394F7CFB21418F42B1802C0982C212C91
:101A6000A4FE10C0B60180E390E00E948E0DA2FE9D
:101A700017C0A1FC03C088E790E002C088E590E0B1
:101A8000B6010CC08A2D867859F0A1FE02C08BE207
:101A900001C080E2A7FC8DE2B60190E00E948E0DAD
:101AA000891438F4B60180E390E00E948E0D9A9478
:101AB000F7CF8A94F301E80DF11D8081B60190E023
:101AC0000E948E0D8110F5CF222009F442CEB6017E
:101AD00080E290E00E948E0D2A94F6CFF601868176
:101AE000978102C08FEF9FEF2B96E2E10C94440E9A
:101AF000FC010590615070400110D8F780959095D9
:101B00008E0F9F1F0895FC016150704001900110DD
:101B1000D8F7809590958E0F9F1F08950F931F9370
:101B2000CF93DF93FB01238121FD03C08FEF9FEF54
:101B30002CC022FF16C0468157812481358142176F
:101B4000530744F4A081B1819D012F5F3F4F318342
:101B500020838C93268137812F5F3F4F37832683E5
:101B600014C08B01EC01FB010084F185E02D099587
:101B7000892BE1F6D80116968D919C9117970196C5
:101B800017969C938E931697CE01DF91CF911F915C
:101B90000F910895FA01AA27283051F1203181F1DF
:101BA000E8946F936E7F6E5F7F4F8F4F9F4FAF4F65
:101BB000B1E03ED0B4E03CD0670F781F891F9A1F78
:101BC000A11D680F791F8A1F911DA11D6A0F711D2C
:101BD000811D911DA11D20D009F468943F912AE038
:101BE000269F11243019305D3193DEF6CF01089520
:101BF000462F4770405D4193B3E00FD0C9F7F6CF51
:101C0000462F4F70405D4A3318F0495D31FD405218
:101C1000419302D0A9F7EACFB4E0A69597958795AE
:101C200077956795BA95C9F700976105710508958D
:101C30009B01AC010A2E0694579547953795279539
:101C4000BA95C9F7620F731F841F951FA01D0895D1
:101C50002F923F924F925F926F927F928F929F92BC
:101C6000AF92BF92CF92DF92EF92FF920F931F93AA
:101C7000CF93DF93CDB7DEB7CA1BDB0B0FB6F8945B
:101C8000DEBF0FBECDBF09942A88398848885F849B
:101C90006E847D848C849B84AA84B984C884DF800C
:101CA000EE80FD800C811B81AA81B981CE0FD11DF0
:101CB0000FB6F894DEBF0FBECDBFED010895F894C6
:021CC000FFCF54
:101CC200FFDC05DC05504330005043310043414402
:101CD2004552415F53454C3A004F4B5F4341443AB2
:101CE20025640A00434F444F5F53454C3A004F4B23
:101CF2005F434F443A25640A00414E475F434144E3
:101D02003A004341445F5345543A25640A00414E28
:101D1200475F434F443A00434F445F5345543A258B
:101D2200640A004341443A256420434F443A2564FF
:101D32000A002020204D4F444F205541525420206C
:101D4200202020004F4E4C494E450043414420255F
:101D5200643A20256C75252500434F442025643ABA
:101D620020256C7525250047524142415220454E9F
:101D720020534C4F543A2020005B25645D2025649B
:101D82007320202020202020202000A1534C4F54DB
:101D920020475541524441444F212000454C494778
:101DA2004520534C4F542028312D34293A005B25CD
:101DB200645D205043313D434F4E4649524D41529E
:101DC2000047524142414E444F2E2E2E20202020C9
:101DD20020004C43443A47524142414E444F2E2E3A
:101DE2002E004341442025643A20253364252520D2
:101DF200434F442025643A20253364252500543A74
:101E02002532757320534C4F543A256420202020EC
:101E1200004775617264616E646F2E2E2E004775E5
:101E220061726461646F20636F72726563746F21A3
:101E3200004572726F723A2025642066616C6C6F85
:101E420073004C43443A475241424143494F4E206A
:101E520046494E414C2E004C43443A47524142417E
:101E620043494F4E2043414E43454C2E004361723D
:101E720067616E646F2E2E2E00506F736963696FF7
:101E82006E6573206361726761646173004D4F44D4
:101E92004F20454550524F4D202020202000536CAA
:101EA2006F743A2564205043313D434152474152B9
:101EB20000504F534943494F4E45532043415247E7
:061EC20041444153000001
:00000001FF
